{
  "transactions": [
    {
      "hash": "0xc9c45ed7740afba25e4d14964f8e35a8b2019c0440b9127ae2d0124d7cfefb84",
      "transactionType": "CALL",
      "contractName": null,
      "contractAddress": "0x4da66dccedfde29ae7e7264ee8e1dc40dfde0129",
      "function": "mintDeed(uint256,address,string)",
      "arguments": [
        "1",
        "0xCF4767B9721247333d135a17D52D7243Fa2f04fc",
        "ipfs://sample-deed-metadata"
      ],
      "transaction": {
        "from": "0xcf4767b9721247333d135a17d52d7243fa2f04fc",
        "to": "0x4da66dccedfde29ae7e7264ee8e1dc40dfde0129",
        "gas": "0x2450a",
        "value": "0x0",
        "input": "0x81fda95b0000000000000000000000000000000000000000000000000000000000000001000000000000000000000000cf4767b9721247333d135a17d52d7243fa2f04fc0000000000000000000000000000000000000000000000000000000000000060000000000000000000000000000000000000000000000000000000000000001b697066733a2f2f73616d706c652d646565642d6d657461646174610000000000",
        "nonce": "0x1a",
        "chainId": "0x13882"
      },
      "additionalContracts": [],
      "isFixedGasLimit": false
    }
  ],
  "receipts": [
    {
      "status": "0x1",
      "cumulativeGasUsed": "0x18d4b",
      "logs": [
        {
          "address": "0x4da66dccedfde29ae7e7264ee8e1dc40dfde0129",
          "topics": [
            "0xddf252ad1be2c89b69c2b068fc378daa952ba7f163c4a11628f55a4df523b3ef",
            "0x0000000000000000000000000000000000000000000000000000000000000000",
            "0x000000000000000000000000cf4767b9721247333d135a17d52d7243fa2f04fc",
            "0x0000000000000000000000000000000000000000000000000000000000000001"
          ],
          "data": "0x",
          "blockHash": "0x52369b2987723103874bbda81113335a7d7e7ea5d13a7a98cb543ef2baf976ef",
          "blockNumber": "0x193750d",
          "transactionHash": "0xc9c45ed7740afba25e4d14964f8e35a8b2019c0440b9127ae2d0124d7cfefb84",
          "transactionIndex": "0x0",
          "logIndex": "0x0",
          "removed": false
        },
        {
          "address": "0x0000000000000000000000000000000000001010",
          "topics": [
            "0x4dfe1bbbcf077ddc3e01291eea2d5c70c2b422b415d95645b9adcfd678cb1d63",
            "0x0000000000000000000000000000000000000000000000000000000000001010",
            "0x000000000000000000000000cf4767b9721247333d135a17d52d7243fa2f04fc",
            "0x0000000000000000000000007ee41d8a25641000661b1ef5e6ae8a00400466b0"
          ],
          "data": "0x000000000000000000000000000000000000000000000000005ad9cc59a3b0330000000000000000000000000000000000000000000000026d38c6ba42ebf6c700000000000000000000000000000000000000000000009356efc9562d80ca9a0000000000000000000000000000000000000000000000026cddecede9484694000000000000000000000000000000000000000000000093574aa32287247acd",
          "blockHash": "0x52369b2987723103874bbda81113335a7d7e7ea5d13a7a98cb543ef2baf976ef",
          "blockNumber": "0x193750d",
          "transactionHash": "0xc9c45ed7740afba25e4d14964f8e35a8b2019c0440b9127ae2d0124d7cfefb84",
          "transactionIndex": "0x0",
          "logIndex": "0x1",
          "removed": false
        }
      ],
      "logsBloom": "0x00000000000000000000000000800000000000000000000000000000000000000000000000000000000000000000000000008000000000000000000000040000000000000000000000000008000000800000000000040020000100000000000000000000020000000000000000000800000000000000000080000010000000000000000000000000020000010400000000000000000000000000000000000000200000000000000000000000000000000000000000000000000000000000004000000002000000000001000040000000000200400000000000100000000860000000000000000000000000000000000000000000000000000000000000100000",
      "type": "0x2",
      "transactionHash": "0xc9c45ed7740afba25e4d14964f8e35a8b2019c0440b9127ae2d0124d7cfefb84",
      "transactionIndex": "0x0",
      "blockHash": "0x52369b2987723103874bbda81113335a7d7e7ea5d13a7a98cb543ef2baf976ef",
      "blockNumber": "0x193750d",
      "gasUsed": "0x18d4b",
      "effectiveGasPrice": "0x3a8a699ff8",
      "from": "0xcf4767b9721247333d135a17d52d7243fa2f04fc",
      "to": "0x4da66dccedfde29ae7e7264ee8e1dc40dfde0129",
      "contractAddress": null
    }
  ],
  "libraries": [],
  "pending": [],
  "returns": {},
  "timestamp": 1757939468512,
  "chain": 80002,
  "commit": "f4dcc4c"
}