{
  "transactions": [
    {
      "hash": null,
      "transactionType": "CALL",
      "contractName": null,
      "contractAddress": "0x4da66dccedfde29ae7e7264ee8e1dc40dfde0129",
      "function": "mintDeed(uint256,address,string)",
      "arguments": [
        "1",
        "0xCF4767B9721247333d135a17D52D7243Fa2f04fc",
        "ipfs://sample-deed-metadata"
      ],
      "transaction": {
        "from": "0xcf4767b9721247333d135a17d52d7243fa2f04fc",
        "to": "0x4da66dccedfde29ae7e7264ee8e1dc40dfde0129",
        "gas": "0x2450a",
        "value": "0x0",
        "input": "0x81fda95b0000000000000000000000000000000000000000000000000000000000000001000000000000000000000000cf4767b9721247333d135a17d52d7243fa2f04fc0000000000000000000000000000000000000000000000000000000000000060000000000000000000000000000000000000000000000000000000000000001b697066733a2f2f73616d706c652d646565642d6d657461646174610000000000",
        "nonce": "0x1a",
        "chainId": "0x13882"
      },
      "additionalContracts": [],
      "isFixedGasLimit": false
    }
  ],
  "receipts": [],
  "libraries": [],
  "pending": [],
  "returns": {},
  "timestamp": 1757935682400,
  "chain": 80002,
  "commit": "f4dcc4c"
}